:100000004BEF03F00000000000EF00F000000000E4
:0A0010000000000000000000F3D71C
:0A001C00030E0D6E0D2EFED712002C
:10002600480E0C6E6C0E0D6E0D2EFED70C2EFCD7E8
:0400360000001200B4
:0C003A00A60E0D6E0D2EFED70000120069
:080046000AAE029E000E12003A
:10004E000B840BAE32EF00F0010E036E026A016AF2
:0A005E00006A0A360232FF0E12009B
:0E006800026A016A006A086A036A000E12004A
:100076003BBE02D0819601D081863BBC02D08194E2
:1000860001D081843BBA02D0819201D081823BB8F3
:1000960002D0819001D081802CB002D0818801D01D
:1000A6008198818AB8DF819A3BB602D0819601D0C9
:1000B60081863BB402D0819401D081843BB202D0C8
:1000C600819201D081823BB002D0819001D08180A3
:1000D6002CB002D0818801D08198818A9CDF819AD8
:0C00E6002CA002D09DDF01D0A5DF12008D
:1000F2000C6A0E6A0250D8A492EF00F001C002F01E
:1001020000C001F0006A0E860250D8A492EF00F0FF
:1001120001C002F0016A0E960E880250D8B4A4EF14
:1001220000F00E50035ED8A4D8A0A9EF00F0D8903A
:1001320002BEAEEF00F0003601360236032E99EF12
:1001420000F0A9EF00F0010E0C6E8DDFB1EF00F0B0
:10015200020E0C6E7BDFB1EF00F0040E0C6E72DF4C
:02016200120089
:0C0164002C903AC03BF085DF2C8012008C
:080170000B6A0B86FF0E120062
:100178000B820BAEC6EF00F00368026801680068E6
:080188000A360232FF0E1200DC
:0A019000490E0D6E0D2EFED7120071
:10019A00939A93989390939293949396819A819831
:1001AA00819681948192819039DF38DF37DF8182AD
:1001BA008180818A2EDF819A31DF818A2ADF819AC2
:1001CA002DDF818A26DF819A29DF8190818A21DFCA
:1001DA00819A24DF818A1DDF819A81928186818AB0
:1001EA0018DF819A1BDF81968180818A12DF819ACA
:1001FA008190818A0EDF819A11DF818A0ADF819AD2
:10020A008180818A06DF819A09DF8190818A01DFF4
:10021A00819A8186818481828180818AFADE819AAB
:06022A00FDDE2C80120035
:10023000C26A070EC012C08E35C000F000360090B2
:10024000003600900050C212C280A2DFC282C2A259
:1002500001D0FDD7C4CF01F0006AC3500012000ED8
:060260000112C290120021
:10026600FF0E2D6EFF0E2E6EFF0E2F6EFF0E306EE2
:0C027600C26A070EC012C08EC2801200C7
:100282000900F5CFE6FF0006FBE10106F9E11200E5
:100292000A6A0350D8A40A800750D8A40A820A50D6
:1002A200D8B4ACEF01F0030AD8B465EF01F00AB09C
:1002B20060EF01F006AEAAEF01F0A8EF01F002AE86
:1002C200A8EF01F0AAEF01F00250800B0A6E029E25
:1002D2000650800B069E0A18D8B476EF01F00A5039
:1002E200D8B4A8EF01F0AAEF01F00750035CD8B42C
:1002F20080EF01F0D8A09CEF01F0A2EF01F00650D0
:10030200025CD8B48AEF01F0D8A09CEF01F0A2EF12
:1003120001F00550015CD8B494EF01F0D8A09CEF35
:1003220001F0A2EF01F00450005CD8B4ACEF01F090
:10033200D8B0A2EF01F00A52D8B4AAEF01F0A8EFA8
:1003420001F00A52D8B4A8EF01F0AAEF01F0D88068
:0E0352001200D8901200D880D8841200120039
:100360000FD0800E356E19D0C00E356E16D0940E9B
:10037000356E13D0D40E356E10D0800E356E0DD084
:100380003550010AEEE03550020AEEE03550030A1E
:10039000EEE03550040AEEE0F0D73604006E35503A
:1003A000002600C035F000C03BF065DE2C90396AB5
:1003B00039503724E96E000E3820EA6EEE520BE019
:1003C00039503724E96E000E3820EA6EEECF3AF04D
:0A03D000C9DE392AEDD72C80120097
:1003DA000450000A12E10550000A0FE10650000A13
:1003EA000CE10750000A09E1FF0E006EFF0E016ED4
:1003FA007F0E026EFF0E036EA4D0086A096A0750C8
:10040A00D8B498EF02F00350D8B49CEF02F002502F
:10041A0006180A6E028E068E0E6A02C008F001C025
:10042A000CF000C00DF004500D5E0550D8A0053C3C
:10043A000C5E0650D8A0063C085E086A0C6A0D6A73
:10044A00D8A02FEF02F0D8900232013200320832DF
:10045A00010E0E6E0750035ED8A03CEF02F07E0E2E
:10046A000E240326D8B0A0EF02F042EF02F07E0E6F
:10047A000E240326D8A0A4EF02F0180E0B6E0D3638
:10048A000C3608360036013602360E360450005E47
:10049A000550D8A0053C015E0650D8A0063C025E75
:1004AA0006340E120EA05DEF02F00D8068EF02F026
:1004BA00045000260550D8B0053C01260650D8B095
:1004CA00062802260D900B2E44EF02F08EEF02F062
:1004DA00D8900036013602360E360450005E0550BA
:1004EA00D8A0053C015E0650D8A0063C025E063440
:1004FA000E10010B0D26D8B00C2AD8B4082AD8A49D
:10050A008EEF02F008320C320D32032AD8B4A0EF73
:10051A0002F00AAE089E0850026E0C50016E0D5091
:10052A00006EA6EF02F0010E1EDEA6EF02F0020E2A
:10053A0096DDA6EF02F0040E1ADEA6EF02F0080E10
:04054A0081DD12003D
:10054E000050086E0150006E016A026A036A0B6A5F
:10055E000C6A960E036E0A6A00C001F008C000F025
:08056E00086A026ABFDD1200F9
:10057600086A096A000E0762036440EF03F002503E
:1005860006180A6E075003267E0ED8A0D1EF02F099
:10059600035ED8B044EF03F0D5EF02F0035ED8A0B7
:1005A60048EF03F0028E068E02C00EF001C00BF07B
:1005B60000C00DF000500402F4CF0CF0015005020B
:1005C600F4CF00F0F3CF08F00402F3500C26F450F9
:1005D6000822000E00220D500502F3500C26F4509E
:1005E6000822000E002202500402F3500826F4509E
:1005F600002202500502016A000E0122F350002675
:10060600F45001220D500602F3500826F450002241
:10061600026A000E012202220B500602F350002647
:10062600F4500122000E02220E500602F35001265B
:10063600F450022202BE28EF03F0083600360136D7
:1006460002360306D8B448EF03F03BEF03F0D88038
:10065600800E08640030000E002201220222D8A07B
:100666003BEF03F0023201320032034A44EF03F05B
:100676000AAE029E000E4AEF03F0010EF2DC4AEFCC
:1006860003F0020E76DD4AEF03F0040EDDDC120005
:100696004FEC04F0316A326A336A346A0E0EC16E68
:1006A600DFDD78DD010E3B6EE3DC0C0E3B6EE0DC3D
:1006B600356ABBDD49DF000E046EC00E056E7F0E87
:1006C600066E880E076E86DE000E046E000E056E40
:1006D600200E066E810E076E4BDF000E046E000EB6
:1006E600056E480E066E850E076E42DF00C031F0BD
:1006F60001C032F002C033F003C034F0000E046EC5
:10070600000E056E700E066E820E076EBFDD010EC0
:10071600D8B0000E006E00520CE0010E3B6EA8DC55
:10072600010E356E010E366E200E376E000E386ED7
:1007360014DE31C004F032C005F033C006F034C018
:1007460007F0000E006E000E016E700E026E820E35
:10075600036E9CDD010ED8B0000E006E005223E041
:10076600000E046E000E056E580E066E830E076EA2
:1007760031C000F032C001F033C002F034C003F0E3
:1007860085DD010ED8B0000E006E00520CE0010EA1
:100796003B6E6EDC010E356E010E366E190E376E2F
:1007A600000E386EDADD31C004F032C005F033C019
:1007B60006F034C007F0000E006E000E016E580EF3
:1007C600026E830E036E62DD010ED8B0000E006E5F
:1007D600005223E0000E046E000E056E700E066ECB
:1007E600830E076E31C000F032C001F033C002F054
:1007F60034C003F04BDD010ED8B0000E006E00527F
:100806000CE0010E3B6E34DC010E356E010E366EC9
:10081600150E376E000E386EA0DD31C004F032C002
:1008260005F033C006F034C007F0000E006E000E6F
:10083600016E700E026E830E036E28DD010ED8B0B7
:10084600000E006E00520CE0010E3B6E11DC010E34
:10085600356E010E366E260E376E000E386E7DDD55
:10086600330E0B6EBB0E0C6EDF0E0D6E0D2EFED70D
:100876000C2EFCD70B2EFAD70000000019D7FFD795
:10089E0010EE15F0170E006E010E016E860EF66E3E
:0E08AE00080EF76E000EF86E41EC01F012001D
:04088600486F740043
:07088A004E6F726D616C00FE
:06089100436F6C642100BE
:06089700466972652100B4
:020000040030CA
:0D000100821F1EFF8381FF0FC00FE00F4024
:00000001FF
